{
  "contractName": "Charity",
  "abi": [
    {
      "inputs": [],
      "stateMutability": "nonpayable",
      "type": "constructor"
    },
    {
      "anonymous": false,
      "inputs": [
        {
          "indexed": true,
          "internalType": "address",
          "name": "donor",
          "type": "address"
        },
        {
          "indexed": false,
          "internalType": "uint256",
          "name": "amount",
          "type": "uint256"
        }
      ],
      "name": "DonationReceived",
      "type": "event"
    },
    {
      "anonymous": false,
      "inputs": [
        {
          "indexed": true,
          "internalType": "address",
          "name": "receiver",
          "type": "address"
        },
        {
          "indexed": false,
          "internalType": "uint256",
          "name": "amount",
          "type": "uint256"
        }
      ],
      "name": "FundsWithdrawn",
      "type": "event"
    },
    {
      "inputs": [
        {
          "internalType": "address",
          "name": "",
          "type": "address"
        }
      ],
      "name": "donations",
      "outputs": [
        {
          "internalType": "uint256",
          "name": "",
          "type": "uint256"
        }
      ],
      "stateMutability": "view",
      "type": "function",
      "constant": true
    },
    {
      "inputs": [],
      "name": "owner",
      "outputs": [
        {
          "internalType": "address",
          "name": "",
          "type": "address"
        }
      ],
      "stateMutability": "view",
      "type": "function",
      "constant": true
    },
    {
      "inputs": [],
      "name": "totalDonations",
      "outputs": [
        {
          "internalType": "uint256",
          "name": "",
          "type": "uint256"
        }
      ],
      "stateMutability": "view",
      "type": "function",
      "constant": true
    },
    {
      "inputs": [],
      "name": "donate",
      "outputs": [],
      "stateMutability": "payable",
      "type": "function",
      "payable": true
    },
    {
      "inputs": [
        {
          "internalType": "uint256",
          "name": "_amount",
          "type": "uint256"
        }
      ],
      "name": "withdraw",
      "outputs": [],
      "stateMutability": "nonpayable",
      "type": "function"
    },
    {
      "inputs": [],
      "name": "getContractBalance",
      "outputs": [
        {
          "internalType": "uint256",
          "name": "",
          "type": "uint256"
        }
      ],
      "stateMutability": "view",
      "type": "function",
      "constant": true
    }
  ],
  "bytecode": "0x608060405234801561001057600080fd5b50336000806101000a81548173ffffffffffffffffffffffffffffffffffffffff021916908373ffffffffffffffffffffffffffffffffffffffff1602179055506107b2806100606000396000f3fe6080604052600436106100555760003560e01c80632e1a7d4d1461005a5780636f9fb98a146100835780638da5cb5b146100ae578063cc6cb19a146100d9578063de2ed89314610116578063ed88c68e14610141575b600080fd5b34801561006657600080fd5b50610081600480360381019061007c9190610493565b61014b565b005b34801561008f57600080fd5b506100986102f4565b6040516100a59190610661565b60405180910390f35b3480156100ba57600080fd5b506100c36102fc565b6040516100d091906105e6565b60405180910390f35b3480156100e557600080fd5b5061010060048036038101906100fb919061046a565b610320565b60405161010d9190610661565b60405180910390f35b34801561012257600080fd5b5061012b610338565b6040516101389190610661565b60405180910390f35b61014961033e565b005b60008054906101000a900473ffffffffffffffffffffffffffffffffffffffff1673ffffffffffffffffffffffffffffffffffffffff163373ffffffffffffffffffffffffffffffffffffffff16146101d9576040517f08c379a00000000000000000000000000000000000000000000000000000000081526004016101d090610601565b60405180910390fd5b4781111561021c576040517f08c379a000000000000000000000000000000000000000000000000000000000815260040161021390610641565b60405180910390fd5b60008054906101000a900473ffffffffffffffffffffffffffffffffffffffff1673ffffffffffffffffffffffffffffffffffffffff166108fc829081150290604051600060405180830381858888f19350505050158015610282573d6000803e3d6000fd5b5060008054906101000a900473ffffffffffffffffffffffffffffffffffffffff1673ffffffffffffffffffffffffffffffffffffffff167feaff4b37086828766ad3268786972c0cd24259d4c87a80f9d3963a3c3d999b0d826040516102e99190610661565b60405180910390a250565b600047905090565b60008054906101000a900473ffffffffffffffffffffffffffffffffffffffff1681565b60016020528060005260406000206000915090505481565b60025481565b60003411610381576040517f08c379a000000000000000000000000000000000000000000000000000000000815260040161037890610621565b60405180910390fd5b34600160003373ffffffffffffffffffffffffffffffffffffffff1673ffffffffffffffffffffffffffffffffffffffff16815260200190815260200160002060008282546103d0919061068d565b9250508190555034600260008282546103e9919061068d565b925050819055503373ffffffffffffffffffffffffffffffffffffffff167f264f630d9efa0d07053a31163641d9fcc0adafc9d9e76f1c37c2ce3a558d2c52346040516104369190610661565b60405180910390a2565b60008135905061044f8161074e565b92915050565b60008135905061046481610765565b92915050565b60006020828403121561047c57600080fd5b600061048a84828501610440565b91505092915050565b6000602082840312156104a557600080fd5b60006104b384828501610455565b91505092915050565b6104c5816106e3565b82525050565b60006104d860268361067c565b91507f4f6e6c7920746865206f776e65722063616e20706572666f726d20746869732060008301527f616374696f6e00000000000000000000000000000000000000000000000000006020830152604082019050919050565b600061053e60298361067c565b91507f446f6e6174696f6e20616d6f756e74206d75737420626520677265617465722060008301527f7468616e207a65726f00000000000000000000000000000000000000000000006020830152604082019050919050565b60006105a460128361067c565b91507f496e73756666696369656e742066756e647300000000000000000000000000006000830152602082019050919050565b6105e081610715565b82525050565b60006020820190506105fb60008301846104bc565b92915050565b6000602082019050818103600083015261061a816104cb565b9050919050565b6000602082019050818103600083015261063a81610531565b9050919050565b6000602082019050818103600083015261065a81610597565b9050919050565b600060208201905061067660008301846105d7565b92915050565b600082825260208201905092915050565b600061069882610715565b91506106a383610715565b9250827fffffffffffffffffffffffffffffffffffffffffffffffffffffffffffffffff038211156106d8576106d761071f565b5b828201905092915050565b60006106ee826106f5565b9050919050565b600073ffffffffffffffffffffffffffffffffffffffff82169050919050565b6000819050919050565b7f4e487b7100000000000000000000000000000000000000000000000000000000600052601160045260246000fd5b610757816106e3565b811461076257600080fd5b50565b61076e81610715565b811461077957600080fd5b5056fea2646970667358221220cdeb6a302470b9dc4533f31c9f211a2796c75221a9ffa0d8dc53ade85164133c64736f6c63430008000033",
  "immutableReferences": {},
  "source": "// SPDX-License-Identifier: MIT  \npragma solidity ^0.8.0;  \n  \ncontract Charity {  \n    address public owner;  \n    mapping(address => uint) public donations;  \n    uint public totalDonations;  \n  \n    event DonationReceived(address indexed donor, uint amount);  \n    event FundsWithdrawn(address indexed receiver, uint amount);  \n  \n    constructor() {  \n        owner = msg.sender;  \n    }  \n  \n    modifier onlyOwner() {  \n        require(msg.sender == owner, \"Only the owner can perform this action\");  \n        _;  \n    }  \n  \n    function donate() external payable {  \n        require(msg.value > 0, \"Donation amount must be greater than zero\");  \n        donations[msg.sender] += msg.value;  \n        totalDonations += msg.value;  \n        emit DonationReceived(msg.sender, msg.value);  \n    }  \n  \n    function withdraw(uint _amount) external onlyOwner {  \n        require(_amount <= address(this).balance, \"Insufficient funds\");  \n        payable(owner).transfer(_amount);  \n        emit FundsWithdrawn(owner, _amount);  \n    }  \n  \n    function getContractBalance() external view returns (uint) {  \n        return address(this).balance;  \n    }  \n}  \n",
  "sourcePath": "/usr/local/bin/CharityDApp/contracts/Charity.sol",
  "compiler": {
    "name": "solc",
    "version": "0.8.0+commit.c7dfd78e.Emscripten.clang"
  },
  "schemaVersion": "3.4.16",
  "updatedAt": "2024-09-25T16:57:38.679Z",
  "networkType": "ethereum",
  "devdoc": {
    "kind": "dev",
    "methods": {},
    "version": 1
  },
  "userdoc": {
    "kind": "user",
    "methods": {},
    "version": 1
  }
}